:020000040800F2
:10000000581F002039020008C10300087F9800082B
:10001000C5030008C9030008CD0300080000000064
:10002000000000000000000000000000D1030008F4
:10003000D503000800000000CB97000889020008E3
:10004000530200085302000853020008530200083C
:100050005302000853020008E9100008FD100008D0
:100060001111000825110008391100085302000879
:10007000530200085302000853020008530200080C
:1000800053020008530200085302000853020008FC
:100090005302000853020008530200084D110008E3
:1000A00053020008530200085302000853020008DC
:1000B00053020008530200085302000853020008CC
:1000C00053020008530200085302000853020008BC
:1000D00053020008110B00085302000853020008E5
:1000E0007911000853020008530200085302000867
:1000F000530200085302000853020008530200088C
:10010000530200085302000853020008530200087B
:10011000530200085302000853020008530200086B
:10012000530200085302000853020008530200085B
:10013000530200085302000853020008530200084B
:10014000530200085302000853020008530200083B
:10015000530200085302000853020008530200082B
:10016000530200085302000853020008530200081B
:10017000530200085302000853020008530200080B
:1001800053020008530200085302000853020008FB
:10019000530200085302000800F002F800F03CF897
:1001A0000AA090E8000C82448344AAF10107DA45D2
:1001B00001D100F031F8AFF2090EBAE80F0013F0E8
:1001C000010F18BFFB1A43F0010318473CB00000B1
:1001D0005CB00000103A24BF78C878C1FAD8520742
:1001E00024BF30C830C144BF04680C6070470000B1
:1001F0000023002400250026103A28BF78C1FBD830
:10020000520728BF30C148BF0B6070471FB509F0C7
:100210009CFB1FBD10B510BD09F05DFB1146FFF73B
:10022000F5FF03F093FA09F07BFB03B4FFF7F2FF4D
:1002300003BC09F083FB00000948804709480047D8
:10024000FEE7FEE7FEE7FEE7FEE7FEE7FEE7FEE786
:10025000FEE7FEE704480549054A064B70470000E3
:10026000518200089901000858070020581F0020FB
:10027000580A0020580A002080B54FF00060002185
:1002800001F0BCFB80BD00BF80B504F019FD03F098
:10029000ABF904F029FD80BD80B5FFF7EDFF40F21A
:1002A0000000C2F20000006848F21F51C5F2EB11D5
:1002B000A0FB0110400900F013F842F20000C2F266
:1002C000010044F20001C2F2020105F0A7FD03F0B3
:1002D000E3F949F69270C0F6000005F053FC80BDCA
:1002E00080B582B0009000980138B0F1807F03D3D0
:1002F000FFE70120019019E0009801384EF2140147
:10030000CEF2000108604FF0FF300F2100F012F82C
:100310004EF21801CEF20001002008604EF21002E9
:10032000CEF20002072111600190FFE7019802B0B0
:1003300080BD00BF82B0019000910198002809D4CF
:10034000FFE70098000101994EF20042CEF2000250
:1003500088540AE000980001019901F00F014EF65F
:100360001452CEF200028854FFE702B0704700003A
:1003700080B584B0002102910391082000F02EF88E
:100380000390039814214FF4FA724FF47A73019397
:1003900000F008FA039800F0C9F8019807F0D4FAC1
:1003A000039800F011FB019807F0CEFA039800F0D3
:1003B00025FB019807F0C8FA029804B080BD000040
:1003C000704700BFFFE7FEE7FFE7FEE7FFE7FEE756
:1003D000704700BF704700BF7047000080B58AB00B
:1003E00009900891002006900790FFE707980028E1
:1003F00000F39980FFE70798C0EBC00140F2CC10F2
:10040000C2F2000000EB8100069006980089C00748
:10041000002840F08380FFE70699088940F001003A
:100420000881099806990860089806994860069816
:1004300000F07CF80998002108F010FA40F20C2036
:10044000C2F20000006850B1FFE740F20C20C2F297
:100450000000006890F8340004285ED1FFE740F205
:100460000C20C2F20000059040F21031C2F20001EF
:10047000016000686A460521D1601E2191604FF439
:100480008071516040F21021C2F20001116049F602
:100490009971C0F6000140F27952C0F600020023C3
:1004A00006F064FE0598006860B9FFE749F6A2709F
:1004B000C0F6000049F6AC71C0F60001522205F00A
:1004C00057FCFFE740F20C20C2F20000006806F083
:1004D00011FF40F2E810C2F20000049040F2EC116B
:1004E000C2F200010160006849F6F271C0F6000135
:1004F00000231A4603F09CFD0498006860B9FFE7EA
:1005000049F6F270C0F6000049F6AC71C0F6000181
:100510005B2205F02DFCFFE7FFE704E0FFE707980B
:100520000130079062E706980AB080BD80B582B0BE
:100530000190019868B9FFE749F6BB70C0F600006A
:1005400049F6DD71C0F6000140F23B1205F010FCE7
:10055000FFE701984068012806D1FFE7019800688D
:10056000002108F09DF905E001980068012108F0DC
:1005700097F9FFE702B080BD80B586B005900020F6
:100580000390FFE70021084600F062FA0290FFE7BF
:100590000298A0B1FFE703F00FF8019040F2E810D5
:1005A000C2F200000068029903F09CFE08B1FFE768
:1005B00005E00198012100F04BFA0290E8E70020E5
:1005C0000490FFE70498002800F38080FFE7049878
:1005D000C0EBC00140F2CC10C2F2000000EB810081
:1005E0000390029A03998869801A886103980089A8
:1005F0008007002865D5FFE703988069002860DC44
:10060000FFE7039800890007002842D5FFE7039819
:10061000B0F90A00002806DCFFE70398B0F90A00E9
:10062000013060B9FFE7039800F0CEF9039908891B
:1006300020F0080008810399C889886128E00398A0
:10064000008AF0B1FFE70399888948810399088AF5
:10065000C8810399888A4882039900208882039977
:10066000088203998881039988610398B0F90A0088
:10067000013028B9FFE703994FF4FA708861FFE76A
:1006800005E00399088920F002000881FFE7FFE7F1
:1006900016E00398FFF74AFF0399088940F0080025
:1006A00008810399488A88610398B0F90A000128F3
:1006B00005DBFFE70399488901384881FFE7FFE739
:1006C000FFE7FFE70498013004907BE75AE700BF9B
:1006D00080B586B0059001200390059860B9FFE7CA
:1006E00049F6BB70C0F600004AF22101C0F60001D5
:1006F0009F2205F03DFBFFE705980068012108F007
:10070000ADF80598002102911C2204F079FB0298B3
:100710000490FFE70498002817DCFFE70498C0EB7B
:10072000C00140F2CC10C2F2000000EB8100059045
:1007300005980089C00718B1FFE70020039004E086
:10074000FFE7049801300490E4E7039838B3FFE72B
:1007500040F2E810C2F20000006860B1FFE740F22A
:10076000E810C2F200000190006803F0A5FC0199B6
:1007700000200860FFE740F20C20C2F20000006891
:1007800060B1FFE740F20C20C2F200000090006868
:1007900006F056FE009900200860FFE7FFE706B06C
:1007A00080BD00BF80B584B00390ADF80A10ADF8ED
:1007B0000820ADF80630039860B9FFE749F6BB7032
:1007C000C0F6000049F6E871C0F60001E12205F02C
:1007D000CFFAFFE7BDF80800BDF8061088420CDD2F
:1007E000FFE749F6BF70C0F6000049F6E871C0F6B1
:1007F0000001E22205F0BCFAFFE70398B0F90A0015
:10080000013000BBFFE7BDF90A0001281BDBFFE751
:100810000399488988810399C88908820399488A7D
:1008200088820398FFF782FE0398BDF90A10BDF88D
:100830000820BDF8063000F03BF803984FF4FA7139
:1008400000F06EF831E003980089800700281DD57C
:10085000FFE7BDF80A0003998881BDF8080064220B
:10086000504344F6D351C1F26201A0FB013080092C
:10087000039B1882BDF80600BDF80830C01A50432B
:10088000A0FB01108009039988820DE00398BDF94F
:100890000A10BDF80820BDF8063000F009F80398EA
:1008A000002100F03DF8FFE7FFE704B080BD00BF86
:1008B00080B584B00390ADF80A10ADF80820ADF80B
:1008C0000630039868B9FFE749F6BB70C0F6000030
:1008D0004AF21201C0F600014FF48F7205F048FA97
:1008E000FFE7BDF80A0003994881BDF808006422BB
:1008F000504344F6D351C1F26201A0FB013080099C
:10090000039BD881BDF80600BDF80830C01A5043DB
:10091000A0FB011080090399488204B080BD00BF8C
:1009200080B582B00190ADF80210019868B9FFE778
:1009300049F6BB70C0F600004AF23201C0F6000171
:100940004FF4947205F014FAFFE7BDF80200642139
:10095000484344F6D351C1F26201A0FB0110800963
:10096000019988610199088940F00E00088140F2E0
:10097000E810C2F20000006803F0C2FD02B080BDC2
:1009800080B582B00190019868B9FFE749F6BB7065
:10099000C0F600004AF20301C0F6000140F2131253
:1009A00005F0E6F9FFE70198FFF7C0FD0199002087
:1009B000888201990882019988810199088920F02B
:1009C0000200088102B080BD80B582B0019001981C
:1009D00068B9FFE749F6BB70C0F6000049F6F97147
:1009E000C0F6000140F2331205F0C2F9FFE70199A9
:1009F0000868496807F054FF02B080BD80B582B036
:100A00000190019868B9FFE749F6BB70C0F6000095
:100A100049F6CF71C0F600014FF4A67205F0A8F9AF
:100A2000FFE70198006807F05DFF0090009801283B
:100A300006D1FFE701980068002107F031FF05E0CB
:100A400001980068012107F02BFFFFE702B080BD8D
:100A500080B586B005900491002002904FF6FE709C
:100A6000C7F6FF700190049830B1FFE702F0A4FDD3
:100A70000599401A0590FFE700200390FFE70398CF
:100A8000002836DCFFE70398C0EBC00140F2CC1031
:100A9000C2F2000000EB81000290029800898007FA
:100AA000002821D5FFE7049898B1FFE70298008954
:100AB0004007002806D5FFE70299088920F00400C6
:100AC000088105E0059A02998869801A8861FFE724
:100AD000FFE7029880690199884204DAFFE70298EB
:100AE00080690190FFE7FFE7FFE70398013003907B
:100AF000C5E70198B0F1FF3F03DCFFE7002000905D
:100B000002E001980090FFE7009806B080BD000069
:100B100080B504F0D5F840F2F860C2F2000000F0B1
:100B200003F804F0E1F880BD80B582B0019001982F
:100B3000006C0090009868B9FFE74AF26300C0F6C5
:100B400000004AF2AF01C0F600014FF4F27205F066
:100B50000FF9FFE70098006840F2255102F0B4FC5D
:100B600060B1FFE700980068202102F07DFC28B109
:100B7000FFE70198012108F0CFF9FFE7009800682E
:100B800040F2277102F0A0FC60B1FFE70098006816
:100B9000802102F069FC28B1FFE70198022108F0EA
:100BA000BBF9FFE702B080BD80B586B00590049127
:100BB0000599C8680969084340F00100012102F065
:100BC00053F80598006843F60001C4F20101884219
:100BD00012D0FFE70598006845F20001C4F2010158
:100BE000884209D0FFE70598006845F20041C4F249
:100BF0000101884206D1FFE705988068012102F0D3
:100C000033F805E005988068012102F047F8FFE716
:100C10000598808BADF80400059880690390032047
:100C200002900598406901A901F0A8F80498B0F86D
:100C30000500C0F38100012808D0FFE70498B0F850
:100C40000500C0F3810002280DD1FFE70598008D53
:100C5000ADF804000598406A03900598006A01A960
:100C600001F08CF8FFE705984068002100F006F8D5
:100C70000598406800F020F806B080BD82B0019071
:100C800000910198002809D4FFE70098000101991C
:100C90004EF20042CEF2000288540AE000980001B1
:100CA000019901F00F014EF61452CEF20002885461
:100CB000FFE702B0704700BF81B0009000980028A5
:100CC0000DD4FFE7009901F01F02012090404A096E
:100CD0004EF20011CEF2000141F82200FFE701B010
:100CE000704700BF80B584B00020039040F6080133
:100CF000C0F2040102914FF4E13101910090FFE74D
:100D0000009850BBFFE700984BF2A412C0F6000217
:100D1000342100FB0120C36A49F6DC20C0F6000044
:100D20005864009800FB0120C36A0198DDF808C0F0
:100D3000DDF80CE0C3F850E0C3F84CC098640098AC
:100D400000FB0123D86A196B40F2031207F0EAFD99
:100D5000FFE7009801300090D2E7002004B080BD8A
:100D600080B58CB00B900A910B9868B9FFE74AF2F6
:100D70005100C0F600004AF28D01C0F6000140F2B9
:100D80003F1204F0F5FFFFE70A9868B9FFE74AF25F
:100D90004200C0F600004AF28D01C0F600014FF497
:100DA000A07204F0E5FFFFE70B98006C099009982A
:100DB0000A99FFF7F9FE0A98006805900A980079E9
:100DC00000F00F00092805D1FFE74FF48050ADF87F
:100DD000180003E00020ADF81800FFE70A9800793A
:100DE000C0F3011001460491032817D80499DFE8E5
:100DF00001F002060B100020ADF81A000FE04FF4CE
:100E00008050ADF81A000AE04FF40050ADF81A0017
:100E100005E04FF44050ADF81A0000E0FFE70A98F3
:100E2000007980090146039190B1FFE703980128FA
:100E300004D0FFE70398022805D00DE04FF4C0600E
:100E4000ADF81C0009E04FF48060ADF81C0004E030
:100E50000020ADF81C0000E0FFE70A98B0F805009C
:100E600000F0030001460291032817D80299DFE839
:100E700001F002060B100020ADF820000FE04FF447
:100E80008070ADF820000AE04FF40070ADF820004B
:100E900005E04FF44070ADF8200000E0FFE70A984D
:100EA000B0F80500C0F381000146019140B1FFE7B1
:100EB0000198012808D0FFE70198022808D00BE02C
:100EC0000820ADF81E0008E00420ADF81E0004E084
:100ED0000C20ADF81E0000E0FFE70998006805A9A6
:100EE00002F064F809980068012102F047F9002037
:100EF0000CB080BD80B58AB00990089107924FF47C
:100F0000E06000F017FD099868B9FFE74AF2510068
:100F1000C0F600004AF29F01C0F6000140F2A312A1
:100F200004F026FFFFE70998006C069008980390EC
:100F3000102818D0FFE70398112829D1FFE7069859
:100F400040688DF81000002002908DF81200059086
:100F500004A800F0FDFC029A0698006840F22551B2
:100F600002F020F914E0069840688DF81000002087
:100F70008DF8120001200190059004A800F0E8FC13
:100F8000019A0698006840F2255102F00BF9FFE73C
:100F900000200AB080BD00BF80B584B003908DF8FA
:100FA0000B10039868B9FFE74AF25100C0F6000041
:100FB0004AF28001C0F600014FF4E27204F0D8FE5C
:100FC000FFE70398006C0190019800689DF80B10F2
:100FD00002F0A6F9FFE701980068802102F044FAC8
:100FE00008B9FFE7F7E7012004B080BD80B584B001
:100FF0000390039868B9FFE74AF25100C0F6000079
:101000004AF27301C0F600014FF4E97204F0B0FE39
:10101000FFE70398006C01904FF0FF3002900198B9
:101020000068202102F020FA30B1FFE70198006843
:1010300002F082F90290FFE7029804B080BD000040
:1010400080B582B004200121019101F00DFE0199CB
:10105000082001F009FE0199102001F005FE4AF276
:10106000B800C0F6000049F67411C0F60001002275
:1010700007F09EFA02B080BD80B582B08DF80700FF
:101080009DF907100120884000F0CAFD58B1FFE724
:101090009DF9070000F00AF89DF90710012088402B
:1010A00000F0E0FDFFE702B080BD00BF80B582B078
:1010B0000190019800EB400140F20400C2F20000F0
:1010C00000EB8100406868B1FFE7019800EB400148
:1010D00040F20400C2F2000000EB81004168806829
:1010E0008847FFE702B080BD80B503F0E9FD00202E
:1010F000FFF7C2FF03F0F8FD80BD00BF80B503F02D
:10110000DFFD0120FFF7B8FF03F0EEFD80BD00BF5B
:1011100080B503F0D5FD0220FFF7AEFF03F0E4FD3C
:1011200080BD00BF80B503F0CBFD0320FFF7A4FF17
:1011300003F0DAFD80BD00BF80B503F0C1FD0420DF
:10114000FFF79AFF03F0D0FD80BD00BF80B503F02C
:10115000B7FD0520FFF790FF0620FFF78DFF072062
:10116000FFF78AFF0820FFF787FF0920FFF784FFBA
:1011700003F0BAFD80BD00BF80B503F0A1FD0A20D9
:10118000FFF77AFF0B20FFF777FF0C20FFF774FFC4
:101190000D20FFF771FF0E20FFF76EFF0F20FFF706
:1011A0006BFF03F0A1FD80BD80B588B0079006916C
:1011B0000592ADF81230079840F60001C4F2010123
:1011C000884205D1FFE70420012101F04DFD37E001
:1011D000079840F60041C4F20101884205D1FFE7BB
:1011E0000820012101F040FD29E0079841F20001AB
:1011F000C4F20101884205D1FFE71020012101F06E
:1012000033FD1BE0079841F20041C4F2010188421E
:1012100005D1FFE72020012101F026FD0DE0079810
:1012200041F60001C4F20101884205D1FFE74020E8
:10123000012101F019FDFFE7FFE7FFE7FFE7FFE707
:10124000BDF81200B0F5803F0DDAFFE7BDF81200DF
:10125000ADF804000698039005980290079801A93C
:1012600000F08CFDFFE708B080BD00BF80B588B0FE
:101270000790069105929DF8180000F06DFA049011
:10128000049808B9FFE734E001A800F03BFE049899
:101290008068ADF8040003200290059818B9FFE7B4
:1012A000102003901FE00598012803D1FFE70420D8
:1012B000039017E00598022803D1FFE74820039028
:1012C0000FE00598032803D1FFE72820039007E0EB
:1012D0000598042803D1FFE714200390FFE7FFE7F8
:1012E000FFE7FFE7FFE70498406801A900F046FD2B
:1012F000FFE708B080BD00BF80B584B003900291C5
:1013000001929DF8080000F027FA0090009808B9B3
:10131000FFE706E0009948680989019A00F060FE3D
:10132000FFE704B080BD00BF80B586B00490039194
:10133000002002909DF80C0000F00EFA0190019838
:1013400018B9FFE70298059008E0019948680989F3
:1013500000F0E6FD029002980590FFE7059806B0C0
:1013600080BD00BF80B588B0DDF828C0069005912B
:10137000049203934FF0FF3000909DF8140000F0AA
:10138000EBF90290029818B9FFE70620079086E073
:101390000298806800F002FA00900098002804D4B7
:1013A000FFE70098102803D3FFE70620079076E0B8
:1013B00008F0F4F90190009800EB400140F20400BD
:1013C000C2F2000030F921000599884230D1FFE7D0
:1013D000009800EB400140F20400C2F2000000EB74
:1013E000810040680399884222D1FFE7009800EB12
:1013F000400140F20400C2F2000000EB810040888E
:101400000499884214D1FFE7009800EB400140F2B4
:101410000400C2F2000000EB810080680A99884253
:1014200006D1FFE7019808F0BDF90020079036E0EB
:10143000009800EB400140F20400C2F2000030F9D5
:101440002100013030B1FFE7019808F0ABF9072027
:10145000079024E00598009901EB410240F2040155
:10146000C2F2000121F822000398009A02EB420226
:1014700001EB820250600498009A02EB420201EBF9
:10148000820250800A98009A02EB420201EB82012C
:101490008860019808F086F900200790FFE7079818
:1014A00008B080BD80B588B0069005914FF0FF3040
:1014B00002909DF8140000F04FF90490049818B9B8
:1014C000FFE70620079049E00498806800F066F97D
:1014D00002900298002804D4FFE70298102803D352
:1014E000FFE70620079039E008F058F903900298CA
:1014F00000EB400140F20400C2F2000030F921008C
:10150000013030B9FFE7039808F04CF9002007904C
:1015100024E0029800EB400240F20401C2F2000114
:101520004FF6FF7021F82200029800EB400001EB1B
:101530008002002001905060029A02EB420201EB0F
:1015400082025080029A02EB420201EB8201886023
:10155000039808F027F901980790FFE7079808B06B
:1015600080BD00BF80B58EB00C900B910A924FF0F9
:10157000FF3006909DF82C0000F0EEF809900998D5
:1015800018B9FFE706200D90E3E00A9801287ED104
:10159000FFE70998806800F001F906900698002896
:1015A00004D4FFE70698102803D3FFE706200D9028
:1015B000CFE008F0F3F80790069800EB400140F206
:1015C0000400C2F2000030F92100013030B9FFE719
:1015D000079808F0E7F806200D90BAE0069949F65A
:1015E000F020C0F6000000EBC1000890069800EB68
:1015F000400140F20400C2F2000000EB810040888C
:101600000146019140B1FFE70198012807D0FFE7AB
:101610000198022806D008E00820049005E00C207C
:10162000049002E010200490FFE701210091084699
:1016300001F01AFB0998406800F0D0F89DF81810E6
:10164000C0B200F01BFF009809998968029100213F
:101650000391059002A800F033FA0998806800F021
:1016600001FB08984068052100F0F8F808984068E8
:1016700000F012F90898028840F23441C2F20001E9
:10168000086810430860079808F08CF85EE00A9834
:10169000002856D1FFE70998806800F013F90890F8
:1016A000089818B9FFE706200D9052E008F076F888
:1016B00007900898028840F23441C2F2000108689D
:1016C0009043086008980088202815DBFFE70898F9
:1016D0000088B0F5007F0FDCFFE740F23440C2F233
:1016E0000000008810F4787F05D1FFE70898406873
:1016F00000F006F9FFE720E008980088B0F5806F59
:1017000015DBFFE708980088B0F5004F0FDCFFE716
:1017100040F23440C2F20000407810F0FC0F05D1D6
:10172000FFE70898406800F0EBF8FFE704E008984E
:10173000406800F0E5F8FFE7FFE7079808F032F8A7
:1017400003E06FF005000D9003E0FFE700200D902F
:10175000FFE70D980EB080BD82B08DF807009DF8B0
:1017600007004F2814D8FFE79DF8070000EB400161
:1017700049F67030C0F6000000EB81000090009840
:101780000068013018B9FFE700200090FFE702E091
:1017900000200090FFE7009802B0704783B00190EE
:1017A00000200090FFE700981F2810DCFFE7009959
:1017B000012000FA01F10198884203D1FFE7009867
:1017C000029008E0FFE7009801300090EBE74FF04F
:1017D000FF300290FFE7029803B0704782B000909C
:1017E000009840F60001C4F20101884203D1FFE7EE
:1017F000002001902EE0009840F60041C4F2010163
:10180000884203D1FFE70120019023E0009841F2D4
:101810000001C4F20101884203D1FFE702200190D8
:1018200018E0009841F20041C4F20101884203D15E
:10183000FFE7032001900DE0009841F60001C4F29B
:101840000101884203D1FFE70420019002E000205B
:101850000190FFE7019802B0704700BF82B001908D
:1018600000910198002809D4FFE700980001019930
:101870004EF20042CEF2000288540AE000980001C5
:10188000019901F00F014EF61452CEF20002885475
:10189000FFE702B0704700BF81B0009000980028B9
:1018A0000DD4FFE7009901F01F02012090404A0982
:1018B0004EF20011CEF2000141F82200FFE701B024
:1018C000704700BF80B584B002900298FFF766FFB2
:1018D00001900198002804D4FFE70198102803D351
:1018E000FFE70020039008E0019949F6F020C0F6D8
:1018F000000000EBC1000390FFE7039804B080BD37
:1019000081B000900098002811D4FFE7009901F001
:101910001F02012090404A094EF28011CEF20001D0
:1019200041F82200BFF34F8FBFF36F8FFFE701B085
:101930007047000081B0009000980021C0F2FA5179
:1019400008434EF60C51CEF20001086001B070471A
:1019500084B003900020029001900F200090039823
:101960004068C0B3FFE74EF60C50CEF200000068AE
:10197000C043C0F3022002900298C0F1040001901D
:1019800000980299C84000900398407801998840D7
:1019900002900398807800990140029808430290D1
:1019A0000298000102900298039909784EF20042D1
:1019B000CEF2000288540398027802F01F01012041
:1019C00088404EF20011CEF2000141EAD20121F02E
:1019D000030108600FE00398027802F01F01012064
:1019E00088404EF28011CEF2000141EAD20121F08E
:1019F00003010860FFE704B0704700BF82B00190A8
:101A00000091019800994FF68072C1F6FF72114063
:101A100008434EF60851CEF20001086002B070474C
:101A200082B08DF807000091009850B1FFE79DF853
:101A300007204EF61051CEF20001086810430860EE
:101A400009E09DF807204EF61051CEF2000108681B
:101A500090430860FFE702B0704700BF81B000907C
:101A60000098042809D1FFE74EF21001CEF20001E0
:101A7000086840F004000860FFE701B0704700000C
:101A800040F20041C4F201010020086040F204412C
:101A9000C4F20101086040F20841C4F2010108608B
:101AA00040F20C41C4F20101086040F21441C4F25A
:101AB00001014FF6FF70C0F23F000860704700BFA1
:101AC00082B001900020009040F20040C4F201007A
:101AD00000900198C068002859D0FFE7019802687B
:101AE00040F20041C4F20101086890430860019887
:101AF000026840F20441C4F20101086890430860A2
:101B00000198416800980844009001980268009983
:101B10000868104308600198026840F20841C4F266
:101B200001010868904308600198026840F20C4186
:101B3000C4F2010108689043086001988068102889
:101B400013D1FFE70198026840F20841C4F2010195
:101B50000868104308600198026840F20C41C4F222
:101B6000010108681043086010E040F20040C4F230
:101B70000100009001988168009808440090019845
:101B800002680099086810430860FFE70BE00198BD
:101B9000416800980844009001980268009908681C
:101BA00090430860FFE702B0704700BF81B000902B
:101BB00000990020086000994860009A0C2191600B
:101BC0000099C86001B0704781B00090009A40F25F
:101BD0001041C4F2010108681043086001B0704769
:101BE00082B001900020009040F21440C4F2010045
:101BF00000680199084203D0FFE70120009002E04D
:101C000000200090FFE7009802B0704781B000907C
:101C1000009840F21441C4F20101086001B070471D
:101C200083B0029000200190009040F20040C4F286
:101C30000100006802990840009040F21440C4F28C
:101C4000010000680299084206D0FFE7009818B129
:101C5000FFE70120019002E000200190FFE70198DA
:101C600003B0704781B00090009840F21441C4F274
:101C70000101086001B0704781B0009040F2184146
:101C8000C4F20101086800F00F000860009A0868BB
:101C90001043086001B0704780B586B00590059884
:101CA00040F60001C4F2010188420AD1FFE7042096
:101CB0000490012101F026F80498002101F022F897
:101CC0004CE0059840F60041C4F2010188420AD177
:101CD000FFE708200390012101F014F80398002188
:101CE00001F010F839E0059841F20001C4F2010159
:101CF00088420AD1FFE710200290012101F002F88A
:101D00000298002100F0FEFF26E0059841F2004114
:101D1000C4F2010188420AD1FFE72020019001218D
:101D200000F0F0FF0198002100F0ECFF13E00598AF
:101D300041F60001C4F2010188420AD1FFE74020C8
:101D40000090012100F0DEFF0098002100F0DAFF92
:101D500000E0FFE7FFE7FFE7FFE7FFE706B080BD32
:101D600080B582B001210191084600F0CBFF0198B7
:101D7000002100F0C7FF02B080BD00BF88B007900F
:101D8000069100200590049003900290019000902D
:101D90000698806800F00F0005900698007AC0064B
:101DA000002806D5FFE70698416805980843059086
:101DB000FFE70698007800284BD0FFE707980068F7
:101DC000019000200390FFE7039807283DD8FFE724
:101DD00003990120884002900698008802990840E3
:101DE00004900498029988422AD1FFE70398800062
:101DF000029002990F208840009000990198884332
:101E000001900598029900FA01F1019808430190A8
:101E100006988068282806D1FFE7039901208840AA
:101E2000079948610BE006988068482806D1FFE7CB
:101E300003990120884007990861FFE7FFE7FFE762
:101E4000FFE7039801300390BEE701980799086007
:101E5000FFE706980088B0F5807F50DBFFE7079822
:101E60004068019000200390FFE70398072842D8BC
:101E7000FFE7039800F108010120884002900698CE
:101E800000880299084004900498029988422DD154
:101E9000FFE703988000029002990F20884000908D
:101EA00000990198884301900598029900FA01F180
:101EB00001980843019006988068282808D1FFE718
:101EC000039800F108010120884007994861FFE765
:101ED00006988068482808D1FFE7039800F10801B8
:101EE0000120884007990861FFE7FFE7FFE70398B3
:101EF00001300390B9E7019807994860FFE708B0FF
:101F0000704700BF81B0009000994FF6FF700880C5
:101F100000990120486000990420886001B0704752
:101F200082B00190ADF8021000208DF801000198F8
:101F30008068BDF80210084204D0FFE701208DF848
:101F4000010003E000208DF80100FFE79DF801008B
:101F500002B0704781B000900098806880B201B0F4
:101F6000704700BF82B00190ADF8021000208DF8DC
:101F700001000198C068BDF80210084204D0FFE7D4
:101F800001208DF8010003E000208DF80100FFE73B
:101F90009DF8010002B0704781B000900098C068C1
:101FA00080B201B0704700BF82B00190ADF802105E
:101FB000BDF802000199086102B0704782B001903B
:101FC000009100980199086102B0704782B00190B9
:101FD000ADF80210BDF802000199486102B07047E7
:101FE00083B00290ADF806100092009828B1FFE788
:101FF000BDF806000299086104E0BDF806000299E8
:102000004861FFE703B0704782B00190ADF802105D
:10201000BDF802000199C86002B0704783B0029019
:10202000ADF806104FF480300090BDF8061000980F
:1020300008430090009802998861BDF80600029953
:1020400088610098029988610298806900900298DE
:102050008069009003B0704782B08DF807008DF85A
:102060000610002000900021C4F2010108680090D1
:1020700000984FF68072104000909DF8072000985D
:1020800040EA021000909DF806200098104300904E
:102090000098086002B0704781B0009000981C2141
:1020A000C4F22021086001B0704700BF87B00690DD
:1020B00005910020049003900290019000909DF8FB
:1020C0001B004006002806D5FFE72020C4F20100CF
:1020D000006802901FE09DF81B008006002806D5CE
:1020E000FFE72420C4F201000068029012E09DF88E
:1020F0001B00C006002806D5FFE72820C4F2010017
:102100000068029005E00420C4F20100006802901B
:10211000FFE7FFE7FFE70698C0F303400190BDF833
:102120001800049006980021C7F230010840B0F56D
:10213000401F0CD1FFE7029820F07060029004214C
:10214000C4F20101086820F07060086059E19DF850
:102150001A00C006002821D5FFE79DF81A00800666
:10216000002806D5FFE7019903208840000403906A
:1021700004E00199032088400390FFE70399029847
:10218000884302909DF81B0010F0700F05D1FFE707
:10219000029840F070600290FFE731E19DF81B006B
:1021A000C007002800F08780FFE79DF8180040076F
:1021B00000284FD5FFE79DF81B00800700282ED58B
:1021C000FFE70498069901F40011490C00FA01F1A7
:1021D000029888430290059880B1FFE70421C4F279
:1021E000010108680090009840F0010000900098FC
:1021F00040F070600090009808600FE00421C4F285
:10220000010108680090009820F0010000900098FB
:1022100040F07060009000980860FFE719E00498B3
:10222000069901F40011490C00FA01F10298884363
:1022300002900421C4F2010108680090009820F087
:1022400001000090009840F07060009000980860D5
:10225000FFE72FE0049840F00400069901F4001114
:10226000490C00FA01F1029888430290059880B168
:10227000FFE70421C4F2010108680090009840F0D3
:1022800001000090009840F0706000900098086095
:102290000FE00421C4F2010108680090009820F0CA
:1022A00001000090009840F0706000900098086075
:1022B000FFE7FFE7A3E09DF81B004007002840F17F
:1022C0008780FFE79DF81800000700284FD5FFE73B
:1022D0009DF81B00800700282ED5FFE7049806997B
:1022E00001F40011490C00FA01F1029888430290B0
:1022F000059880B1FFE70421C4F20101086800904D
:10230000009840F008000090009840F07060009045
:10231000009808600FE00421C4F2010108680090F1
:10232000009820F008000090009840F07060009045
:1023300000980860FFE719E00498069901F400117D
:10234000490C00FA01F10298884302900421C4F27A
:10235000010108680090009820F0080000900098A3
:1023600040F07060009000980860FFE72FE004984C
:1023700040F00800069901F40011490C00FA01F13F
:10238000029888430290059880B1FFE70421C4F2C7
:10239000010108680090009840F008000090009843
:1023A00040F070600090009808600FE00421C4F2D3
:1023B000010108680090009820F008000090009843
:1023C00040F07060009000980860FFE7FFE715E0BC
:1023D0000498069901F40011490C00FA01F10298E1
:1023E000884302909DF81B0010F0700F05D1FFE7A5
:1023F000029840F070600290FFE7FFE7FFE7FFE719
:10240000FFE7059858B1FFE70498069901F4001119
:10241000490C00FA01F1029808430290FFE79DF889
:102420001B004006002806D5FFE702982021C4F2D1
:10243000010108601FE09DF81B008006002806D5FA
:10244000FFE702982421C4F20101086012E09DF820
:102450001B00C006002806D5FFE702982821C4F219
:102460000101086005E002980421C4F2010108603E
:10247000FFE7FFE7FFE707B0704700BF82B08DF8C6
:1024800007008DF80610002000909DF8060000F06F
:10249000030081000F2088400090009B9DF80600FB
:1024A00000F0FC010822C4F20102885898438850C9
:1024B0009DF807109DF8060000F003039B0001FA49
:1024C00003F300F0FC0188581843885002B07047AD
:1024D00081B000900421C4F20101086820F40000DA
:1024E0000860009A08681043086001B07047000057
:1024F00041F20002C4F20202106840F001001060D4
:1025000041F20401C4F2020108684CF20003CFF664
:10251000FF031840086010684FF6FF73CFF6F663AC
:1025200018401060106820F48020106008684FF692
:10253000FF72CFF200721040086041F22C01C4F229
:1025400002014FF46050086041F23001C4F2020110
:102550004FF46150086041F20801C4F202014FF4E7
:102560001F000860704700BF82B0019041F2000177
:10257000C4F20201086820F480300860086820F482
:102580008020086001980090B0F5803F05D0FFE7FB
:102590000098B0F5802F09D011E041F20001C4F29B
:1025A0000201086840F48030086009E041F200014F
:1025B000C4F20201086840F4A020086000E0FFE7D0
:1025C00002B0704780B584B0002003900290019063
:1025D000FFE7312000F026F80190039801300390C6
:1025E000FFE703990020B1F5004F009006D0FFE708
:1025F0000198B0FA80F040090090FFE70098C0070A
:102600000028E6D1FFE7312000F00CF818B1FFE711
:102610000120029002E000200290FFE7029804B03F
:1026200080BD00BF84B08DF80F00002002900190A3
:1026300000909DF80F00400902900298012807D1F0
:10264000FFE741F20000C4F202000068019012E0CE
:102650000298022807D1FFE741F22000C4F20200ED
:102660000068019006E041F22400C4F20200006814
:102670000190FFE7FFE79DF80F0000F01F000290B8
:1026800001980299C840C00718B1FFE701200090E7
:1026900002E000200090FFE7009804B0704700BF00
:1026A00082B08DF807000020009041F20001C4F2D2
:1026B000020108680090009820F0F80000909DF852
:1026C0000720009840EAC20000900098086002B01D
:1026D000704700BF81B0009000980021C4F24221F1
:1026E000086001B0704700BF83B0029001910020E4
:1026F000009041F20401C4F20201086800900098C1
:102700004FF6FF72CFF2C072104000900298019A0B
:1027100002430098104300900098086003B070478F
:1027200081B0009000986021C4F24221086001B09D
:10273000704700BF82B001900020009041F2040178
:10274000C4F2020108680090009820F00300009095
:10275000019A0098104300900098086002B07047FA
:1027600041F20400C4F20200006800F00C0070475F
:1027700082B001900020009041F20401C4F20201F5
:1027800008680090009820F0F0000090019A0098EE
:10279000104300900098086002B0704782B001902A
:1027A0000020009041F20401C4F202010868009088
:1027B000009820F4E0600090019A00981043009087
:1027C0000098086002B0704782B00190002000902D
:1027D00041F20401C4F2020108680090009820F45C
:1027E00060500090019A009840EAC2000090009862
:1027F000086002B0704700BF82B08DF807000091FA
:10280000009850B1FFE79DF8072041F20901C4F29A
:10281000020108781043087009E09DF8072041F292
:102820000901C4F20201087890430870FFE702B082
:10283000704700BF81B000900098D821C4F24221B7
:10284000086000984008DC21C4F24221086001B011
:10285000704700BF82B001900020009041F22C012F
:10286000C4F2020108680090009820F00050009027
:10287000019A0098104300900098086002B07047D9
:1028800082B001900020009041F22C01C4F20201BC
:1028900008680090009820F0F8500090019A009885
:1028A000104300900098086002B0704783B0029017
:1028B00001910020009041F22C01C4F2020108684D
:1028C0000090009820F480600090009820F47840F8
:1028D0000090029A009810430090019A00981043CB
:1028E00000900098086003B0704700BF83B002906A
:1028F00001910020009041F22C00C4F20200006817
:102900000090009820F4F8700090019828B1FFE73B
:10291000029900980843009008E002990098084343
:102920000090009820F480700090FFE7009841F23A
:102930002C01C4F20201086003B0704782B001901C
:102940000020009041F22C01C4F2020108680090BE
:10295000009820F00F000090019A0098104300901A
:102960000098086002B0704783B002900191002087
:10297000009041F23001C4F2020108680090009812
:1029800020F400300090009820F478400090029AE3
:10299000009810430090019A00981043009000980E
:1029A000086003B0704700BF81B00090009848B144
:1029B000FFE741F23001C4F20201086840F48020D0
:1029C000086008E041F23001C4F20201086820F416
:1029D00080200860FFE701B0704700BF82B08DF82B
:1029E000070041F22001C4F20201002008700870C3
:1029F0009DF8070001460091012804D0FFE70098E8
:102A0000042807D00DE041F22001C4F202010120A8
:102A1000087007E041F22001C4F2020105200870AD
:102A200000E0FFE702B0704781B00090009840F2EC
:102A30008041C4F24221086001B0704781B000902B
:102A400041F22001C4F20201086820F440700860DD
:102A5000009A08681043086001B0704781B0009088
:102A6000009840F23C41C4F24221086001B0704736
:102A700087B006900020059004900390029001908A
:102A800041F20400C4F2020001680022C0F63C02D8
:102A900011400391006800F4803002909DF80F000F
:102AA0000007002806D4FFE70399022000EB9140BD
:102AB000039006E003996FF4F77000EB91400390E8
:102AC000FFE7029840B9FFE7039840F60011C0F213
:102AD0003D014843049019E041F20400C4F20200B1
:102AE00000688003002808D5FFE7039840F600112E
:102AF000C0F23D014843049007E0039841F20021F1
:102B0000C0F27A0148430490FFE7FFE741F2040076
:102B1000C4F20200006800F00C00059005980090D7
:102B200040B1FFE7009804280BD0FFE70098082881
:102B30000ED011E0069941F20020C0F27A00086040
:102B400011E0069941F20020C0F27A0008600AE024
:102B500004980699086006E0069941F20020C0F248
:102B60007A000860FFE741F20401C4F2020108683C
:102B700000F0F0000590059800090590059A49F6C7
:102B80008270C0F60000825C0192069B1A68DDF834
:102B900004C022FA0CF25A600A6802F4E06205925C
:102BA000059A120A0592059A825C0192069B5A6860
:102BB000DDF804C022FA0CF29A60096801F4605151
:102BC00005910599C90A05910599405C01900699FE
:102BD0004868019AD040C86041F22C00C4F202005B
:102BE000016801F00F010591059A49F65271C0F68E
:102BF0000001895C0191069A5168019BB1FBF3F1D8
:102C00005161006800F4F87005900598000905907E
:102C1000059800F00F0149F66270C0F6000030F828
:102C20001100019004980199B0FBF1F00699086138
:102C300007B0704782B001900091009848B1FFE75B
:102C4000019A41F21401C4F20201086810430860BD
:102C500008E0019A41F21401C4F2020108689043AD
:102C60000860FFE702B0704782B0019000910098C1
:102C700048B1FFE7019A41F21801C4F20201086865
:102C80001043086008E0019A41F21801C4F2020101
:102C9000086890430860FFE702B0704782B0019077
:102CA0000091009848B1FFE7019A41F21C01C4F27B
:102CB000020108681043086008E0019A41F21C0113
:102CC000C4F20201086890430860FFE702B0704751
:102CD00082B001900091009848B1FFE7019A41F25B
:102CE0002801C4F2020108681043086008E0019A54
:102CF00041F22801C4F20201086890430860FFE72E
:102D000002B0704782B001900091009848B1FFE78F
:102D1000019A41F20C01C4F20201086810430860F4
:102D200008E0019A41F20C01C4F2020108689043E4
:102D30000860FFE702B0704782B0019000910098F0
:102D400048B1FFE7019A41F21001C4F2020108689C
:102D50001043086008E0019A41F21001C4F2020138
:102D6000086890430860FFE702B0704781B00090A8
:102D7000009848B1FFE741F23001C4F2020108684F
:102D800040F04000086008E041F23001C4F2020166
:102D9000086820F040000860FFE701B0704700BFFE
:102DA00081B00090009840F24041C4F24221086096
:102DB00001B0704781B0009000984C21C4F24221CC
:102DC000086001B0704700BF82B001900020009001
:102DD00041F20401C4F2020108680090009820F05A
:102DE00070400090019A009810430090009808608D
:102DF00002B0704782B08DF807000020009041F2C9
:102E00000401C4F2020108680090009820F0E0601C
:102E100000909DF80720009840EA0260009000981A
:102E2000086002B0704700BF41F22401C4F2020101
:102E3000086840F080700860086820F080700860C2
:102E4000704700BF82B08DF807000020009041F26B
:102E50000800C4F2020000689DF80710084203D081
:102E6000FFE70120009002E000200090FFE70098BB
:102E700002B0704781B08DF803009DF8030041F265
:102E80000A01C4F20201087001B0704780B588B031
:102E90000790079843F60001C4F2010188420BD164
:102EA000FFE74FF4804006900121FFF72BFF0698C3
:102EB0000021FFF727FF77E0079844F20041C4F2B2
:102EC000000188420BD1FFE74FF40030059001214B
:102ED000FFF732FF05980021FFF72EFF63E0079808
:102EE00044F60001C4F2000188420BD1FFE74FF421
:102EF000802004900121FFF71FFF04980021FFF7B5
:102F00001BFF4FE0079844F60041C4F200018842DD
:102F10000BD1FFE74FF4002003900121FFF70CFFD6
:102F200003980021FFF708FF3BE0079845F20001F6
:102F3000C4F2000188420BD1FFE74FF480100290E9
:102F40000121FFF7F9FE02980021FFF7F5FE27E0C7
:102F5000079845F20001C4F2010188420BD1FFE756
:102F60004FF4003001900121FFF7CCFE01980021C1
:102F7000FFF7C8FE13E0079845F20041C4F20101D3
:102F800088420BD1FFE74FF4802000900121FFF72A
:102F9000B9FE00980021FFF7B5FEFFE7FFE7FFE766
:102FA000FFE7FFE7FFE7FFE708B080BD80B58EB021
:102FB0000D900C9100200B900A90099008900790BA
:102FC0000C98808908B1FFE7FFE70D9807900D98EE
:102FD000008A0B900B984CF6FF7108400B900C98F0
:102FE000C1880B9808430B900B980D9908820D9897
:102FF00080890B900B984EF6F31108400B900C99BA
:1030000088880A891043498901430B9808430B902B
:103010000B980D9988810D98808A0B900B984FF62C
:10302000FF4108400B900C9881890B9808430B9046
:103030000B980D99888201A8FFF71AFD079843F6AF
:103040000001C4F20101884210D0FFE7079845F261
:103050000001C4F20101884208D0FFE7079845F259
:103060000041C4F20101884203D1FFE704980A90AD
:1030700002E003980A90FFE70A98192148430C9947
:1030800009688900B0FBF1F00990099848F21F51D6
:10309000C5F2EB11A0FB01026FF00F0000EA520035
:1030A0000B90099B0B980009642200FB123232201E
:1030B00000EB0210A0FB01104009089008990120C4
:1030C000B0EB111F0ED1FFE7099848F21F51C5F26E
:1030D000EB11A0FB01016FF00F0000EA510010306E
:1030E0000B90FFE7089800F00F010B9808430B9036
:1030F0000B980D9908810EB080BD00BF81B0009083
:1031000000994FF4165008600099002088800099BB
:10311000C88000990881009A0C215181009988810A
:1031200001B0704783B00290019100200090029896
:10313000008A009000984FF2FF010840009001992A
:1031400008884A8810438A881043C9880143009838
:103150000843009000980299088203B0704700BFAE
:1031600081B0009000990020088000994880009963
:1031700088800099C88001B0704700BF82B001907C
:103180000091009830B1FFE70199888940F4005020
:10319000888105E00199888920F400508881FFE743
:1031A00002B0704787B00690ADF816100492002068
:1031B0000390029001900090BDF8160040F66A114D
:1031C000884201D1FFE7FFE7069800909DF81600BE
:1031D00040090390BDF8160000F01F00029002990C
:1031E0000120884001900398012804D1FFE700984E
:1031F0000C3000900CE00398022804D1FFE70098FF
:103200001030009003E0009814300090FFE7FFE7D3
:10321000049830B1FFE7019A0099086810430860EC
:1032200005E0019A0099086890430860FFE707B03D
:10323000704700BF83B00290ADF80610009200986E
:1032400038B1FFE7BDF806200299888A10438882CA
:1032500006E0BDF806200299888A90438882FFE73D
:1032600003B0704782B001908DF803100199088A6D
:1032700020F00F0008829DF803200199088A10436E
:10328000088202B0704700BF82B00190ADF8021012
:103290000199888920F400608881BDF80220019995
:1032A00088891043888102B0704700BF82B00190C6
:1032B0000091009830B1FFE70199888940F0020041
:1032C000888105E00199888920F002008881FFE764
:1032D00002B0704782B00190ADF802100199088ADF
:1032E00020F020000882BDF802200199088A1043CE
:1032F000088202B0704700BF82B001900091009830
:1033000030B1FFE70199088A40F48040088205E067
:103310000199088A20F480400882FFE702B07047D4
:1033200082B00190ADF80210BDF802006FF35F208B
:103330000199888002B0704781B000900098808821
:103340006FF35F2001B0704781B0009000998889C9
:1033500040F00100888101B0704700BF82B0019049
:103360008DF803100199088BC0B208839DF80320E3
:103370000199088B40EA0220088302B0704700BF21
:1033800082B001908DF803100199088B20F0FF00A6
:1033900008839DF803200199088B1043088302B02D
:1033A000704700BF82B001900091009830B1FFE7F4
:1033B0000199888A40F02000888205E00199888A76
:1033C00020F020008882FFE702B0704782B00190B1
:1033D0000091009830B1FFE70199888A40F0100011
:1033E000888205E00199888A20F010008882FFE732
:1033F00002B0704782B001900091009830B1FFE7B1
:103400000199888A40F00800888205E00199888A3D
:1034100020F008008882FFE702B0704782B0019078
:10342000ADF802100199888A20F004008882BDF866
:1034300002200199888A1043888202B0704700BF39
:1034400082B001900091009830B1FFE70199888A1D
:1034500040F00200888205E00199888A20F002008D
:103460008882FFE702B0704783B00290ADF8061083
:1034700000200090BDF80600B0F5007F01D1FFE705
:10348000FFE702980088BDF806100840000418B154
:10349000FFE70120009002E000200090FFE7009885
:1034A00003B0704782B00190ADF80210BDF8020081
:1034B0008005002801D5FFE7FFE7BDF80200C04303
:1034C0000199088002B0704786B00590ADF81210DF
:1034D00000200390029001900090BDF8120040F689
:1034E0006A11884201D1FFE7FFE79DF81200400909
:1034F0000190BDF8120000F01F0002900299012017
:10350000884002900198012806D1FFE7059881893B
:1035100002980840029010E00198022806D1FFE7C7
:103520000598018A02980840029005E00598818A72
:10353000029808400290FFE7FFE79DF81300039010
:10354000039901208840039005980188039808405A
:103550000390029830B1FFE7039818B1FFE701200C
:10356000009002E000200090FFE7009806B070474E
:1035700083B00290ADF806100020ADF80400ADF85D
:103580000200BDF8060040F66A11884201D1FFE74B
:10359000FFE79DF80700ADF80400BDF80410012016
:1035A0008840ADF80200BDF80200C04302990880CF
:1035B00003B07047704700BF40F2E860C2F20000FD
:1035C0000068704780B582B0019006F0E7F800907F
:1035D000019840F2E861C2F200010860009806F02C
:1035E000E1F802B080BD00BF80B582B040F2E86172
:1035F000C2F2000108680130086003F075FE019016
:103600000199086C013808640198006C30B9FFE733
:103610000199C86B086404F01BF8FFE704F066FD2D
:1036200002B080BD82B001900198B0F1FF3F04DC90
:10363000FFE74FF0FF30009023E0019844F6D351AC
:10364000C1F2620150FB01F2901100EBD2706422D2
:1036500050430090DDF804C05CFB01F3981100EBCF
:10366000D3704FF47A7300FB13C0504300F2E7307D
:1036700050FB01F1881100EBD171009808440090D3
:10368000FFE7009802B070470020704700207047A5
:10369000002070470020704780B582B04BF2E010E8
:1036A000C0F600000090FFE700984BF2F811C0F65A
:1036B0000001884218D2FFE7009801684AF2F90039
:1036C000C0F6000001F0B8FD009840688047019006
:1036D00001994AF2DB00C0F6000001F0ADFDFFE702
:1036E000009808300090DFE702B080BD80B582B05E
:1036F0004AF2BC00C0F6000001F09EFD4BF2F8104B
:10370000C0F600000090FFE700984BF20021C0F6E1
:103710000001884218D2FFE7009801684AF2F900D8
:10372000C0F6000001F088FD0098406880470190D5
:1037300001994AF2DB00C0F6000001F07DFDFFE7D1
:10374000009808300090DFE702B080BD80B500F03F
:1037500003F8002080BD00BF80B506F01FF8FCF71D
:103760009BFD01F043FD04F041FD03F0CBFA00F0B6
:1037700013F804F05BFD00F029FC03F003FB0020CC
:1037800080BD00BF80B582B00190FFF7AFFFFCF7AE
:10379000EFFD02B080BD00BF80B584B06946142043
:1037A00048600A2008604AF2F400C0F6000043F2C4
:1037B0008571C0F6000100224FF4006303F0ACFEF7
:1037C0000390039860B9FFE74AF2E500C0F60000F5
:1037D0004AF20711C0F60001C42202F0C9FAFFE75D
:1037E000039803F087FD04B080BD000080B584B06D
:1037F00002900191ADF80220029820B9FFE74FF046
:10380000FF30039018E0019800F01AF820B1FFE7AC
:103810004FF0FF3003900FE00298019A092103F066
:103820007BF8BDF80200029908830299002008770E
:10383000029948830390FFE7039804B080BD00BF5E
:1038400080B586B0049003F04FFD18B1FFE703F098
:10385000FFFBFFE7092003F037F80190019860B9FA
:10386000FFE74AF2C110C0F600004AF2F611C0F6B6
:1038700000017C2202F07CFAFFE701984068029088
:10388000FFE7029801990431884219D0FFE70298B6
:103890000C38039003980499082201F019FC50B9E0
:1038A000FFE703F021FD18B1FFE703F0E3FBFFE7BB
:1038B000039805900EE0FFE7029800680290E0E7A9
:1038C00003F012FD18B1FFE703F0D4FBFFE700207F
:1038D0000590FFE7059806B080BD00BF80B582B0B7
:1038E0000190019860B9FFE74AF2D810C0F60000D5
:1038F0004AF2B521C0F60001522202F039FAFFE780
:10390000019803F06FF909280CD0FFE74AF205206F
:10391000C0F600004AF2B521C0F60001532202F0C1
:1039200027FAFFE7019803F03BF960B9FFE74AF295
:103930005110C0F600004AF2B521C0F60001542231
:1039400002F016FAFFE7019803F058F8002002B0E1
:1039500080BD00BF0020704780B584B00390029105
:10396000442001900298033020F003000290029955
:10397000019808440190019802F0F6FA009000982E
:1039800048B1FFE700980021442201F039FA03987A
:1039900000994861FFE7009804B080BD80B582B00F
:1039A0000190019860B9FFE74AF2D810C0F6000014
:1039B0004AF2D921C0F60001BA2202F0D9F9FFE794
:1039C000019803F00FF909280CD0FFE74AF205200F
:1039D000C0F600004AF2D921C0F60001BB2202F075
:1039E000C7F9FFE7019803F0DBF860B1FFE74AF29F
:1039F0008D10C0F600004AF2D921C0F60001BC22A9
:103A000002F0B6F9FFE7019802F0F8FF019802F022
:103A100081FD02B080BD00BF80B582B00190002062
:103A20000090019860B9FFE74AF2D810C0F6000094
:103A30004AF2CA21C0F60001D12202F099F9FFE74B
:103A40000198806AF0B1FFE70198008BC00600285A
:103A500017D4FFE70198816A88470090009848B121
:103A6000FFE70199009A4AF21B10C0F6000001F02E
:103A7000E3FB05E00199088B40F010000883FFE7A5
:103A8000FFE7FFE7009802B080BD00BF80B584B0BB
:103A90000290ADF8061000200090029860B9FFE790
:103AA0004AF2D810C0F600004AF2A621C0F6000182
:103AB000F42202F05DF9FFE7029803F093F8092879
:103AC0000CD0FFE74AF20520C0F600004AF2A6211A
:103AD000C0F60001F52202F04BF9FFE70298008BD7
:103AE000C00600281DD4FFE70298806A98B1FFE75E
:103AF0000298816A88470090009858B1FFE70299C0
:103B0000009A4AF21B10C0F6000001F095FB0098E5
:103B100003904EE0FFE70299088B40F01000088305
:103B2000FFE70298008B000700280AD5FFE70298FC
:103B3000408B0007002804D5FFE76FF006000390D4
:103B400037E00298C06A38B1FFE70298C26ABDF850
:103B500006109047009007E0BDF8060040F60F7190
:103B6000084002994883FFE7009820B1FFE70098DA
:103B70000630D8B9FFE70299488B40F00800488327
:103B80000299087F013008770298007F68B9FFE743
:103B90004AF27910C0F600004AF2A621C0F60001F0
:103BA00040F2231202F0E4F8FFE7FFE700980390E9
:103BB000FFE7039804B080BD80B584B00290002078
:103BC0000190029868B9FFE74AF2D810C0F60000E9
:103BD0004AF24021C0F6000140F2351202F0C8F866
:103BE000FFE7029802F0FEFF09280DD0FFE74AF236
:103BF0000520C0F600004AF24021C0F600014FF453
:103C00009B7202F0B5F8FFE70298007F20B9FFE74A
:103C10004FF0FF30039021E00299087F01380877C8
:103C20000298007F18B1FFE70020039016E0029889
:103C3000006B28B1FFE70298016B88470190FFE70E
:103C4000019820B1FFE70198063020B9FFE70299FB
:103C500000204883FFE701980390FFE7039804B032
:103C600080BD00BF80B586B004900391029201939D
:103C7000049868B9FFE74AF2D810C0F600004AF28B
:103C8000E711C0F6000140F25F1202F071F8FFE7A1
:103C9000049802F0A7FF09280DD0FFE74AF205209B
:103CA000C0F600004AF2E711C0F600014FF4B0720E
:103CB00002F05EF8FFE70498007F38B9FFE74FF0A5
:103CC000FF3001F05BF80020059013E00498406B92
:103CD00048B1FFE70498D0F834C00399029A019BD9
:103CE000E047059006E06FF0050001F047F800207E
:103CF0000590FFE7059806B080BD00BF80B586B08F
:103D00000490039102920193049868B9FFE74AF284
:103D1000D810C0F600004AF28421C0F600014FF42A
:103D2000C37202F025F8FFE7049802F05BFF092850
:103D30000DD0FFE74AF20520C0F600004AF28421C8
:103D4000C0F6000140F2871202F012F8FFE7049873
:103D5000007F38B9FFE74FF0FF3001F00FF8002087
:103D6000059013E00498806B48B1FFE70498D0F801
:103D700038C00399029A019BE047059006E06FF076
:103D8000050000F0FBFF00200590FFE7059806B056
:103D900080BD00BF80B584B002900191009202986E
:103DA00068B9FFE74AF2D810C0F600004AF2942141
:103DB000C0F6000140F2A71201F0DAFFFFE7029817
:103DC00002F010FF09280DD0FFE74AF20520C0F6E7
:103DD00000004AF29421C0F600014FF4D47201F0C1
:103DE000C7FFFFE70298C06B38B1FFE70298C36BCB
:103DF0000199009A9847039003E06FF00500039043
:103E0000FFE7039804B080BD80B582B001900091B7
:103E1000019868B9FFE74AF2D810C0F600004AF2EC
:103E20005021C0F6000140F2C11201F0A1FFFFE7EE
:103E3000019802F0D7FE09280DD0FFE74AF20520CD
:103E4000C0F600004AF25021C0F600014FF4E172C2
:103E500001F08EFFFFE7009801990862002002B090
:103E600080BD00BF80B582B001900091019868B913
:103E7000FFE74AF2D810C0F600004AF26A21C0F605
:103E8000000140F2D71201F073FFFFE7019802F042
:103E9000A9FE09280DD0FFE74AF20520C0F6000070
:103EA0004AF26A21C0F600014FF4EC7201F060FFA3
:103EB000FFE7009801994862002002B080BD000031
:103EC00080B584B0FFE700F063F800285DD0FFE71D
:103ED000FFE705F063FC019000F01AFFA0B1FFE7D7
:103EE0004AF2EB20C0F600004AF21831C0F6000199
:103EF000009101F0A1F900994AF2E570C0F60000C6
:103F0000982201F035FFFFE7019805F04BFCFFE731
:103F100005F044FC039000F03BF838B3FFE740F2B3
:103F2000D840C2F2000000681438029002981430A1
:103F300000F03CF803F08CF80298006F20B1FFE726
:103F40000298016F8847FFE7029802F029FE0128D6
:103F500009D1FFE7029802F051FD03F08BF80398B6
:103F600005F020FC11E003F085F803E0039805F06C
:103F700019FC0AE0039805F015FC0298806A02F02B
:103F8000C9FA029802F0D4FD9DE704B080BD00BFDD
:103F900081B040F2D840C2F2000000900098006862
:103FA0000099401A18BF012001B0704781B00090FD
:103FB000009801684068486000990868496808608E
:103FC000009840600099086001B0704780B586B0E5
:103FD00069462020C8601F2088604FF480704860C8
:103FE00040F2E450C2F20000086040F2B030C2F289
:103FF000000005904AF21231C0F6000144F21502A9
:10400000C0F60002002303F0B1F8059803F072F93E
:1040100006B080BD80B582B00190FFE7FFF750FF8A
:10402000FCE700BF40F2B030C2F200007047000071
:1040300080B584B00390029101928DF8033003980B
:1040400060B9FFE74AF23D40C0F600004AF267510E
:10405000C0F60001CC2201F08BFEFFE70198B0F51D
:10406000803F0CD3FFE74AF25D40C0F600004AF201
:104070006751C0F60001CD2201F07AFEFFE70398F8
:10408000029A022102F048FC039800F00BF8019814
:10409000039988839DF8030003994872002004B0B7
:1040A00080BD00BF80B582B001900198143000F04F
:1040B000EBFD002002B080BD80B582B00190019878
:1040C00060B9FFE74AF23D40C0F600004AF22951CC
:1040D000C0F60001EB2201F04BFEFFE7019802F071
:1040E00081FD02280CD0FFE74AF28840C0F60000AC
:1040F0004AF22951C0F60001EC2201F039FEFFE737
:10410000019802F04DFD60B9FFE74AF26530C0F654
:1041100000004AF22951C0F60001ED2201F028FE0C
:10412000FFE70198143000F007F8019802F066FCF0
:10413000002002B080BD00BF80B584B00390FFE7CF
:10414000039800F029FA90B9FFE705F027FB0190EA
:10415000039800681438029002994FF0FF3008630A
:10416000029803F01FF9019805F01CFBE8E7002016
:1041700004B080BD80B588B0069005918DF81320FD
:10418000FFE705F00BFB029000F0C2FDA8B1FFE7CE
:104190004AF2EB20C0F600004AF2ED41C0F6000101
:1041A000019101F049F801994AF2E570C0F600006A
:1041B00040F2091201F0DCFDFFE7029805F0F2FA87
:1041C000FFE70598B0F5803F0DD3FFE74AF25D4069
:1041D000C0F600004AF2ED41C0F600014FF48572CE
:1041E00001F0C6FDFFE70699022002F039FC0390BA
:1041F000039818B9FFE7039807900CE00398FFF7BE
:1042000051FF0598039988839DF81300039948721C
:1042100003980790FFE7079808B080BD80B584B089
:104220000390FFE705F0BAFA029000F071FDA8B123
:10423000FFE74AF2EB20C0F600004AF20B51C0F64D
:104240000001019100F0F8FF01994AF2E570C0F613
:10425000000040F2291201F08BFDFFE7029805F003
:10426000A1FAFFE7039868B9FFE74AF23D40C0F6BC
:1042700000004AF20B51C0F600014FF4967201F0B3
:1042800077FDFFE7039802F0ADFC02280DD0FFE7B1
:104290004AF28840C0F600004AF20B51C0F6000115
:1042A00040F22D1201F064FDFFE7039802F078FC64
:1042B00068B1FFE74AF2C530C0F600004AF20B5180
:1042C000C0F600014FF4977201F052FDFFE703982A
:1042D0001430FFF731FF039802F02AFC002004B0ED
:1042E00080BD00BF80B58AB008900791089868B972
:1042F000FFE74AF23D40C0F600004AF26E41C0F6C8
:1043000000014FF4A57201F033FDFFE7089802F0B9
:1043100069FC02280DD0FFE74AF28840C0F6000091
:104320004AF26E41C0F6000140F24B1201F020FD4E
:10433000FFE705F033FA0690FFE7FFE70898808B68
:10434000012808DBFFE70899888B013888830698E5
:1043500005F028FA7AE0079838B9FFE7069805F0E3
:1043600021FA6FF00100099073E0FFE705F016FAFB
:10437000049002F0B9FFA8B9FFE74AF22E30C0F668
:1043800000004AF26E41C0F60001029100F054FFB5
:1043900002994AF2E570C0F6000040F26B1201F09B
:1043A000E7FCFFE7FFE705F0F9F9039000F0B0FC48
:1043B000A8B1FFE74AF2EB20C0F600004AF26E41D6
:1043C000C0F60001019100F037FF01994AF2E57053
:1043D000C0F6000040F26B1201F0CAFCFFE7039840
:1043E00005F0E0F9FFE7049805F0DCF9FFE702F0DB
:1043F0007BFF0590059900200863FFE7FFE7089A17
:1044000002F114000599527A00F026F80798012865
:104410000DDBFFE7FFE7FFE705984430002107AA1F
:1044200003F01AFE0598443003F0DCFCFFE7069821
:1044300005F0B8F902F0C6FC0598006B20B1FFE763
:104440000598006B099004E0FFE7FFE70020099062
:10445000FFE709980AB080BD80B586B00590049149
:104460008DF80F20049803F09FF99DF80F00014686
:10447000009120B1FFE70098012806D032E00598AE
:104480000499143100F008FC2CE0059800680290B3
:10449000FFE702980599884218D0FFE70298143880
:1044A0000190049890F83500019991F835108842F0
:1044B00007DAFFE7019814300499143100F0ECFB9F
:1044C00004E0FFE7029800680290E2E7029805998D
:1044D000884206D1FFE705980499143100F0DCFB0F
:1044E000FFE7FFE7002006B080BD00BF80B582B0C7
:1044F000019001980021FFF7F5FE02B080BD00BFDA
:1045000080B584B00390039868B9FFE74AF23D4054
:10451000C0F600004AF2CD41C0F6000140F2B712E9
:1045200001F026FCFFE7039802F05CFB02280DD0A7
:10453000FFE74AF28840C0F600004AF2CD41C0F6DB
:1045400000014FF4DC7201F013FCFFE70020019042
:1045500005F024F90290FFE7FFE70398143000F01C
:104560001BF838B9FFE70398143000F01FF801205A
:10457000019004E00399888B01308883FFE702985B
:1045800005F010F90198012803D1FFE702F01AFCA9
:10459000FFE7002004B080BD81B00090009908685A
:1045A000401AB0FA80F0400901B0704780B582B07F
:1045B00001900198006814380090FFE7FFE7009829
:1045C00002F0F0FE002002B080BD00BF80B586B0D2
:1045D000049003910292049868B9FFE74AF23D40C3
:1045E000C0F600004AF24751C0F600014FF4F472E1
:1045F00001F0BEFBFFE7049802F0F4FA02280DD0A8
:10460000FFE74AF28840C0F600004AF24751C0F680
:10461000000140F2E91201F0ABFBFFE7039801282B
:1046200014D1FFE70298009005F0B8F801900498C3
:104630001430FFF781FD009804998883019805F0F4
:10464000B1F802F0BFFB0020059003E04FF0FF300F
:104650000590FFE7059806B080BD00BF80B584B027
:10466000039002918DF80720039868B9FFE74AF29A
:104670004C40C0F600004AF27351C0F6000140F20F
:10468000152201F075FBFFE70398029A032102F05F
:1046900043F90398FFF706FD0399012088830399E6
:1046A00000200862039AFF2191770399C8779DF84B
:1046B0000710039A517204B080BD00BF80B582B06C
:1046C0000190019868B9FFE74AF24C40C0F600003B
:1046D0004AF23751C0F6000140F2352201F048FBA2
:1046E000FFE7019802F07EFA03280DD0FFE74AF2B7
:1046F0008150C0F600004AF23751C0F6000140F286
:10470000362201F035FBFFE7019802F049FA68B95B
:10471000FFE74AF29430C0F600004AF23751C0F683
:10472000000140F2372201F023FBFFE7019814302B
:10473000FFF702FD019802F061F9002002B080BD90
:1047400080B586B004908DF80F10FFE705F026F8CD
:10475000019000F0DDFAA8B1FFE74AF2EB20C0F6C5
:1047600000004AF2FB41C0F60001009100F064FD38
:1047700000994AF2E570C0F6000040F2522201F0C2
:10478000F7FAFFE7019805F00DF8FFE70499032019
:1047900002F066F90290029818B9FFE702980590B6
:1047A00014E00298FFF77EFC0299012088830299A9
:1047B00000200862029AFF2191770299C8779DF83C
:1047C0000F000299487202980590FFE7059806B01D
:1047D00080BD00BF80B584B00390FFE704F0DEFF2A
:1047E000029000F095FAA8B1FFE74AF2EB20C0F67C
:1047F00000004AF21951C0F60001019100F01CFDC1
:1048000001994AF2E570C0F6000040F2732201F00F
:10481000AFFAFFE7029804F0C5FFFFE7039868B915
:10482000FFE74AF24C40C0F600004AF21951C0F6C8
:10483000000140F2762201F09BFAFFE7039802F0B4
:10484000D1F903280DD0FFE74AF28150C0F60000ED
:104850004AF21951C0F6000140F2772201F088FABD
:10486000FFE7039802F09CF968B1FFE74AF20040C5
:10487000C0F600004AF21951C0F600014FF41E7252
:1048800001F076FAFFE703981430FFF755FC039820
:1048900002F04EF9002004B080BD00BF80B58AB0A0
:1048A00008900791FFE704F079FF049002F01CFDE7
:1048B000A8B9FFE74AF22E30C0F600004AF27A416A
:1048C000C0F60001029100F0B7FC02994AF2E570CF
:1048D000C0F600004FF4257201F04AFAFFE7FFE747
:1048E00004F05CFF039000F013FAA8B1FFE74AF26E
:1048F000EB20C0F600004AF27A41C0F600010191B7
:1049000000F09AFC01994AF2E570C0F600004FF4FD
:10491000257201F02DFAFFE7039804F043FFFFE74B
:10492000049804F03FFFFFE7089868B9FFE74AF2F0
:104930004C40C0F600004AF27A41C0F6000140F255
:10494000972201F015FAFFE7089802F04BF90328C7
:104950000DD0FFE74AF28150C0F600004AF27A41DA
:10496000C0F600014FF4267201F002FAFFE702F0F0
:10497000BBFC059004F012FF0690FFE7FFE70599E6
:10498000002008630898006A0599884205D1FFE76E
:104990000899C87F0130C8776BE0FFE70898808BE3
:1049A000012811DBFFE70899888B01388883059877
:1049B00008990862059890F8350008998877089951
:1049C000C87F0130C87753E0079858B9FFE70599C9
:1049D0006FF0010000900863069804F0E3FE009871
:1049E00009904CE0FFE7FFE7059890F8350008993B
:1049F000096A91F83510884209DAFFE70898006AD9
:104A0000059901F13502022102F0AAFFFFE7089A99
:104A100002F114000599527AFFF71EFD079801284C
:104A20000DDBFFE7FFE7FFE705984430002107AA09
:104A300003F012FB0598443003F0D4F9FFE7069821
:104A400004F0B0FE02F0BEF90598006B50B1FFE72C
:104A50000598006B093008B9FFE79FE70598006BE0
:104A600009900CE004F09AFE0690FFE7FFE7FFE7ED
:104A7000FFE7069804F096FE00200990FFE70998EA
:104A80000AB080BD80B58AB00890089868B9FFE781
:104A90004AF24C40C0F600004AF2DC41C0F6000188
:104AA00040F21D3201F064F9FFE7089802F09AF82D
:104AB00003280DD0FFE74AF28150C0F600004AF209
:104AC000DC41C0F6000140F21E3201F051F9FFE76F
:104AD00000200590FFE704F061FE049002F004FC62
:104AE000A8B9FFE74AF22E30C0F600004AF2DC41D6
:104AF000C0F60001029100F09FFB02994AF2E570B6
:104B0000C0F6000040F2233201F032F9FFE7FFE780
:104B100004F044FE039000F0FBF8A8B1FFE74AF26E
:104B2000EB20C0F600004AF2DC41C0F60001019122
:104B300000F082FB01994AF2E570C0F6000040F2F5
:104B4000233201F015F9FFE7039804F02BFEFFE78D
:104B5000049804F027FEFFE702F0C6FB069004F07D
:104B60001DFE0790FFE7FFE706980899096A88424B
:104B70000BD0FFE706994FF0FF30009008630798CD
:104B800004F010FE009809904FE00899C87F0138A2
:104B9000C8770898C07FD8BBFFE70899887F096A63
:104BA00091F83510884208D0FFE70899086A01F1AA
:104BB0001E02022102F0D4FEFFE708981430FFF72E
:104BC000EBFCC8B9FFE70898406914380690FFE786
:104BD000FFE7069808990862069890F8350008994A
:104BE00088770899C87F0130C87708981430FFF794
:104BF000DDFC012005900AE00899888B013088834C
:104C00000899002008620899FF208877FFE7FFE7EE
:104C1000079804F0C7FD0598012803D1FFE702F0CB
:104C2000D1F8FFE700200990FFE709980AB080BD9E
:104C300080B584B0039002910192039868B9FFE7B0
:104C40004AF24C40C0F600004AF25651C0F600014C
:104C50004FF4607201F08CF8FFE7039801F0C2FF97
:104C600003280DD0FFE74AF28150C0F600004AF257
:104C70005651C0F6000140F2813201F079F8FFE7A9
:104C80004FF0FF3004B080BD81B0009000984060CC
:104C90000099086001B0704782B0019000910098BF
:104CA0000199496808600198406800994860009837
:104CB0000199486001980099086002B070470000AF
:104CC00080B582B0FFE7FFE704F068FD019040F295
:104CD0004C41C2F20001087801300870019804F0DC
:104CE00061FD02B080BD00BF80B582B0FFE7FFE785
:104CF00004F054FD019040F24C41C2F200010878EA
:104D000001380870019804F04DFD02B080BD00BF6D
:104D100080B582B004F042FD009040F24C40C2F2F7
:104D2000000000788DF80700009804F03BFD9DF826
:104D3000070002B080BD000080B582B0FFF7E8FF39
:104D400038B1FFE740F27810C2F20000006801902D
:104D500010E002F0C9FA0090009838B9FFE740F27D
:104D60007810C2F200000068019003E00098006B28
:104D70000190FFE7019802B080BD00BF80B582B00E
:104D80000190FFF7C5FF38B1FFE7019840F27811B5
:104D9000C2F20001086010E002F0A6FA009000984C
:104DA00038B9FFE7019840F27811C2F200010860BB
:104DB00003E0019800990863FFE702B080BD00BFDF
:104DC00080B582B0FFF7A4FF30B1FFE740F2781062
:104DD000C2F2000001900FE002F086FA0090009805
:104DE00020B1FFE700983030019005E040F27810E4
:104DF000C2F200000190FFE7019802B080BD00BF41
:104E000084B003900291019203980090FFE701980B
:104E1000411E019130B1FFE7029800994A1C0092AF
:104E20000870F4E7039804B0704700BF86B005909F
:104E300004910392059802900498019002980199B8
:104E4000884207D9FFE702980199039A11448842E2
:104E500010D9FFE7FFE70398411E039148B1FFE730
:104E60000198411C0191007802994A1C0292087035
:104E7000F1E711E003980090FFE7009858B1FFE7D1
:104E8000019800994A1E805C02998854FFE70098B7
:104E900001380090F1E7FFE7059806B0704700BFC2
:104EA00085B00490039102920498019003980090B9
:104EB00000980199884221D2FFE701980099029A4F
:104EC000114488421AD2FFE70299019808440190E0
:104ED0000299009808440090FFE70298411E029151
:104EE00058B1FFE70098411E009110F8010C01999C
:104EF0004A1E019201F8010CEFE70FE0FFE702986C
:104F0000411E029148B1FFE70098411C00910078D2
:104F100001994A1C01920870F1E7FFE7049805B077
:104F2000704700BF86B00590049103920020009066
:104F30000598029004980190FFE70398A0B1FFE75D
:104F40000298007801990978401A009008B1FFE7AB
:104F50000AE0FFE7029801300290019801300190C9
:104F6000039801380390E8E7009806B0704700BF47
:104F700080B586B004900391039800F029F8019061
:104F8000019818B9FFE7049805901DE0049800F017
:104F90001FF80290FFE702980199884211DBFFE7B2
:104FA00002980138029004980399019AFFF7BAFF1A
:104FB00018B9FFE70498059006E0049801300490C2
:104FC000E9E700200590FFE7059806B080BD00BF27
:104FD00082B0019001980090FFE70098007828B116
:104FE000FFE7FFE7009801300090F6E7009801998D
:104FF000401A02B0704700BF85B004900391FFE7EC
:105000000498411C0491007802900398411C03917C
:10501000007801900298412808DBFFE702985A289F
:1050200004DCFFE7029820300290FFE70198412856
:1050300008DBFFE701985A2804DCFFE701982030DD
:105040000190FFE7FFE70299019A0020914200904A
:1050500006D1FFE70298002818BF01200090FFE763
:105060000098C0070028CBD1FFE702980199401AA9
:1050700005B0704785B0049003910292029820B366
:10508000FFE70498019003980090FFE70098411C07
:105090000091007801994A1C0192087068B9FFE7F5
:1050A000FFE702980138029030B1FFE70199481CF0
:1050B000019000200870F4E706E0FFE7029801384D
:1050C00002900028E2D1FFE7FFE7049805B070479F
:1050D00084B003900291019200208DF80300FFE755
:1050E0000198B8B1FFE70398007802994A1C029230
:1050F0000978401A8DF80300000630B9FFE70398DD
:10510000411C0391007808B9FFE703E001980138DA
:105110000190E5E79DF9030004B0704783B0029069
:105120000191FFE7029801780020009051B1FFE75C
:105130000298007801990978401AB0FA80F0400985
:105140000090FFE70098C00738B1FFE702980130F0
:105150000290019801300190E4E7029800780199EB
:105160000978401A03B0704784B003900291039805
:105170000190FFE7019801780020009051B1FFE70E
:1051800001980399411A029A0020914238BF0120E8
:105190000090FFE70098C00728B1FFE7FFE70198FC
:1051A00001300190E6E701980399401A04B0704776
:1051B00080B584B002900298FFF70AFF0130019099
:1051C000019800F0D1FE0090009818B9FFE7002088
:1051D000039007E000980299019AFFF727FE0098D4
:1051E0000390FFE7039804B080BD00BF80B582B094
:1051F0004AF2FB50C0F6000000F01EF84AF22E60A2
:10520000C0F6000000F018F84AF27760C0F600001F
:10521000694608604AF25260C0F60000032101228C
:10522000042300F009F84AF20460C0F6000000F020
:1052300003F802B080BD00BF83B080B585B009938C
:1052400008920791049007A80390049A039B40F2E8
:105250005440C2F200007F2100F038F8029002981A
:10526000802803D3FFE77F200290FFE740F27C1005
:10527000C2F20000006838B9FFE740F25440C2F2C1
:10528000000000F0ADFC1CE040F27C10C2F2000017
:1052900000900168498BADF806100268518B41F00F
:1052A000400151830068029B40F25442C2F2000266
:1052B0000021FEF723FD0099BDF806000968488328
:1052C000FFE705B0BDE8804003B07047B0B592B0CD
:1052D000119310900F910E9210980A9010980F99B8
:1052E0000844099009981099884208D2FFE74FF0C6
:1052F000FF30099009981099401A0F90FFE7FFE7D7
:105300000E980078002800F09782FFE70E9800784A
:1053100025280ED0FFE70A980999884205D2FFE7B1
:105320000E9800780A990870FFE70A9801300A90F1
:105330007EE200208DF81A00FFE70E9801300E90F3
:105340000E9800782D2807D1FFE79DF81A0040F04D
:1053500010008DF81A0034E00E9800782B2807D141
:10536000FFE79DF81A0040F004008DF81A0027E0CE
:105370000E980078202807D1FFE79DF81A0040F02A
:1053800008008DF81A001AE00E980078232807D13B
:10539000FFE79DF81A0040F020008DF81A000DE09C
:1053A0000E980078302807D1FFE79DF81A0040F0EA
:1053B00001008DF81A0000E004E0FFE7FFE7FFE7D7
:1053C000FFE7BAE74FF0FF3005900E9800783038CD
:1053D000092805D8FFE70EA800F046FA05901DE061
:1053E0000E9800782A2818D1FFE70E9801300E9009
:1053F0001198011D1191006805900598B0F1FF3FCB
:105400000ADCFFE70598404205909DF81A0040F03D
:1054100010008DF81A00FFE7FFE7FFE74FF0FF30BD
:1054200004900E9800782E2826D1FFE70E980130C0
:105430000E900E9800783038092805D8FFE70EA89E
:1054400000F012FA04900EE00E9800782A2809D194
:10545000FFE70E9801300E901198011D1191006820
:105460000490FFE7FFE70498B0F1FF3F03DCFFE79C
:1054700000200490FFE7FFE700208DF819000E9848
:105480000078682805D0FFE70E9800786C2808D1CE
:10549000FFE70E9800788DF819000E9801300E90F5
:1054A000FFE70A208DF81B000E980078253801468A
:1054B0000391532800F24F810399DFE811F028018E
:1054C0004C014C014C014C014C014C014C014C0174
:1054D0004C014C014C014C014C014C014C014C0164
:1054E0004C014C014C014C014C014C014C014C0154
:1054F0004C014C014C014C014C014C014C014C0144
:105500004C014C014C014C014C014C014C014C0133
:105510004C014C014C014C014C014C014C014C0123
:105520004C014C0139014C014C014C014C014C0126
:105530004C014C014C014C014C01540044014C0104
:105540004C014C014C0144014C014C014C014C01FB
:105550004C01350104014C014C0197004C014B01F9
:105560004C014C0140019DF81A00C006002815D4DA
:10557000FFE7FFE705980138059001280DDBFFE7FD
:105580000A980999884204D2FFE70A9920200870F6
:10559000FFE70A9801300A90ECE7FFE71198011D38
:1055A000119100688DF823000A980999884205D264
:1055B000FFE79DF823000A990870FFE70A98013079
:1055C0000A90FFE705980138059001280DDBFFE7F9
:1055D0000A980999884204D2FFE70A9920200870A6
:1055E000FFE70A9801300A90ECE721E11198011DCC
:1055F000119100680790079830B9FFE74AF2706090
:10560000C0F600000790FFE70798FFF7E1FC0B905A
:105610000498012808DBFFE70B980499884203DD12
:10562000FFE704980B90FFE79DF81A00C0060028DA
:1056300016D4FFE7FFE70B9805994A1E05928842AA
:105640000DDAFFE70A980999884204D2FFE70A9920
:1056500020200870FFE70A9801300A90EBE7FFE787
:1056600000200C90FFE70C980B99884215DAFFE7B1
:105670000A980999884205D2FFE7079800780A99A5
:105680000870FFE70A9801300A90079801300790E8
:10569000FFE70C9801300C90E5E7FFE70B980599C0
:1056A0004A1E059288420DDAFFE70A980999884256
:1056B00004D2FFE70A9920200870FFE70A9801301A
:1056C0000A90EBE7B4E00598013048B9FFE70820FD
:1056D00005909DF81A0040F001008DF81A00FFE7D0
:1056E0000A980999119A131D11931268059BDDF808
:1056F00010E09DF81A40EC46CCF80840CCF804E0E5
:10570000CCF80030102300F0CBF80A9090E00A9813
:105710000999884204D2FFE70A9925200870FFE71B
:105720000A9801300A9083E008208DF81B0035E0CC
:105730009DF81A0040F040008DF81A00FFE7102095
:105740008DF81B002AE09DF81A0040F002008DF849
:105750001A00FFE722E00A980999884204D2FFE77D
:105760000A9925200870FFE70A9801300A900E98E0
:10577000007870B1FFE70A980999884205D2FFE7DF
:105780000E9800780A990870FFE70A9801300A908D
:1057900003E00E9801380E90FFE749E09DF81900EC
:1057A0006C280DD1FFE71198011D119100680D9033
:1057B0009DF81A008007002801D5FFE7FFE722E0E7
:1057C0009DF81900682810D1FFE71198011D11916B
:1057D00000880D909DF81A008007002804D5FFE787
:1057E000BDF934000D90FFE70CE01198011D1191F7
:1057F00000680D909DF81A008007002801D5FFE78A
:10580000FFE7FFE7FFE70A9809990D9A9DF81B301B
:10581000DDF814C0049C9DF81A50EE46CEF80850EE
:10582000CEF80440CEF800C000F03AF80A90FFE746
:105830000E9801300E9063E50F9878B1FFE70A9853
:105840000999884204D2FFE70A990020087004E011
:105850000999002001F8010CFFE7FFE70A98109969
:10586000401A12B0B0BD00BF82B00190002000907D
:10587000FFE7019800680078303809280DD8FFE765
:10588000009800EB8001019B1868421C1A600078A8
:1058900000EB410030380090EBE7009802B0704711
:1058A00080B590B0DDF850C0DDF84CC0DDF848C0E0
:1058B0000F900E910D920C931398069012980390EE
:1058C0001498420649F63071C0F6000149F641705D
:1058D000C0F60000002A48BF084605909DF8500019
:1058E000C006002805D5FFE7149820F001001490A9
:1058F000FFE71498C1072020002918BF30208DF839
:105900002F0000208DF82E009DF850008007002801
:1059100023D5FFE70D98B0F1FF3F07DCFFE72D200F
:105920008DF82E000D9840420D9015E09DF8500026
:105930004007002804D5FFE72B208DF82E000AE051
:105940009DF850000007002804D5FFE720208DF8BF
:105950002E00FFE7FFE7FFE7FFE7002004900D9828
:1059600040B9FFE7049A501C04900DF11E0130204D
:10597000885414E0FFE70D9880B1FFE70598029086
:105980000C990DA800F020FA01460298405C049A98
:10599000511C04910DF11E018854ECE7FFE70498B7
:1059A0001399884203DDFFE704981390FFE71399EA
:1059B0000398401A03909DF8500010F0110F21D168
:1059C000FFE79DF82E0040B1FFE70398012804DBB4
:1059D000FFE7039801380390FFE7FFE70398411EB4
:1059E000039101280DDBFFE70F980E99884204D23E
:1059F000FFE70F9920200870FFE70F9801300F9004
:105A0000ECE7FFE79DF82E0088B1FFE70F980E99AD
:105A1000884205D2FFE79DF82E000F990870FFE736
:105A20000398013803900F9801300F90FFE79DF81D
:105A30005000C006002816D4FFE7FFE70398411E78
:105A4000039101280EDBFFE70F980E99884205D2DB
:105A5000FFE79DF82F000F990870FFE70F980130BE
:105A60000F90EBE7FFE7FFE7049813994A1E1392A4
:105A700088420DDAFFE70F980E99884204D2FFE7BB
:105A80000F9930200870FFE70F9801300F90EBE777
:105A9000FFE70499481E049000200129019006DBCD
:105AA000FFE70698002818BF01200190FFE7019842
:105AB000C00780B1FFE70F980E99884207D2FFE731
:105AC00004990DF11E00405C0F990870FFE70F98D4
:105AD00001300F90DDE7FFE70398411E0391012895
